:020000040000FA
:0400000080312B28F8
:100008007E1480310B1F09280A2829284E01191E41
:100018000E280F281A280F1E122813281A28400104
:1000280069088A0068080A0080312928991E1D2855
:100038001E2829288F1E21282228292840016708E0
:100048008A0066080A00803129287E10090080315C
:100058002D28FC01203084000030850025308331B4
:1000680040238031A0308400003085002030833167
:10007800402380317E104001803142288331222381
:1000880080318B170B174001901410141015D530C0
:10009800D5008230D60083311023803140014108D9
:1000A8000319572858285228DD01DF01DE01823163
:1000B800612280314001DB005B08DC005C03031D2A
:1000C80066286728962894010730900082316122BB
:1000D80080314001DB005B08DD0082316122803124
:1000E8004001DB005B08DF00823161228031400182
:1000F800DB005B08DE005D088E005F088C005F187F
:100108008628892840018D158B2840018D115E08AD
:100118008F001011101010141015AC3082313722D6
:100128008031522802305C06031D9B289C28CC286D
:10013800073090008F01FF309400823161228031B6
:100148004001DB005B08DD00823161228031400123
:10015800DB005B08DF005D088E005F088C005F181D
:10016800B628B92840018D15BB2840018D11101102
:1001780090100F08DB005B08DE00901410155E0875
:10018800823137228031AC30823137228031522897
:10019800522880312B284001CC0045088600870171
:1001A800403FC700413FC800470884004808850011
:1001B8001200253A031DE128E22827294508860070
:1001C80087010130810741310318810ABA01BB0157
:1001D800BE01BF01FF30BC00FF30BD0045088600EE
:1001E8008701403FC700413FC800470884004808CE
:1001F80085001200253A031D022903291C294508F8
:10020800860087010130810741310318810A2530B2
:10021800F4000030F5004C08C7004708F6008131AB
:100228004B21803101304001C5000030C6004A2909
:100238004508860087010130810741310318810A8A
:10024800C501C6014A29450886008701403FC70005
:10025800413FC80047088400480885000008C900D5
:10026800CA014908F4004A08F5004C08CB004B08BD
:10027800F60081314B218031400145088600870115
:100288000130810741310318810A162908007608D0
:1002980003194F29502955297608031D5429552932
:1002A8005A29740883314623813189297608033E07
:1002B800860087011600010403196329642981292E
:1002C8007608033E86008701403FF700413FF8006B
:1002D800760A86008701403FF900413FFA007A0814
:1002E800803AFB007808803A7B02031D7D29770855
:1002F80079020318802981298929760A86008701CD
:100308000130810741310318810A08004E01991212
:10031800C930F1000130F2008331522381314E019E
:100328001912B330F1000230F20083314C238131CD
:10033800083042019F0090309D0024309E0010300C
:100348009B009C017230F1000330F20083315E2380
:1003580081316A30F1000330F20083315823813152
:100368006E30F1000330F2008331642381314001A3
:10037800C001C401C3010830F3007308EA00FC019E
:10038800C201C1014E01991608007C08203E860072
:100398008701810142011D1DD229D329DE297C084C
:1003A800203E860087018114400165088A006408A0
:1003B8000A00813142019D1CE229E329EE297C08CB
:1003C800203E860087010115400163088A00620803
:1003D8000A0081317C08203E860087010108031944
:1003E800F629F729FE29400161088A0060080A00F9
:1003F8008131012A8231F6228131080040019A01B7
:1004080099019601970198019101E03092009301BA
:10041800940195017E01E401D901CE01D030C300D9
:10042800B801DA01E501C401B901CF01E601BA0159
:10043800C501D001DB01FF30BB00FF30C600FF3033
:10044800D100FF30DC000730E700BC01F930C700FD
:10045800D201DD010F30E8000D307D01CB001030F6
:100468007E019C000800F20040016A0803193D2A39
:100478003E2A382A4E01191A422A432A472A720864
:1004880042019A005E2A19127208F10040014408DC
:10049800303E86008701710881000130F100710843
:1004A800C40708304402031C5A2A5B2A5C2AC40188
:1004B8000130EA024E0119160800400141080319EB
:1004C800662A672A612A4208203E860087010108B9
:1004D800F1007108C0004208283E86008701010823
:1004E800F1007108F2000130F1007108C20708300C
:1004F8004202031C802A812A822AC2014E019912D3
:1005080001304001C1024E019916720808004001ED
:10051800D2004E08D4004D08D300B801B901A52A6D
:100528005330D0005008C5004F08D1005108C6000C
:1005380052088031CF20823140014508B80746086B
:10054800B93D53088400540885001200031DAD2AE4
:10055800AE2A942A3908CE003808CD0008000830A1
:1005680040016A020318B92ABA2AD22A4308303E3F
:1005780086008701010842019A000130F0007008E6
:100588004001C30708304302031CCB2ACC2ACD2ADA
:10059800C3010130F0007008EA07D42A4E0119128D
:1005A80008000D34503465347434653472342034A2
:1005B80048346F346C34743420344534453445340D
:1005C800503452344F344D342034503472346F34F4
:1005D8006734723461346D346D34653472340D347B
:1005E8000A34003442011908F0007C08283E8600CD
:1005F8008701700881000130F0007008FC0708309E
:100608007C02031C082B092B0A2BFC010130F0008B
:1006180070084001C107080057304001D70057084B
:10062800DA005608CE005508CD005A30D7005708D2
:10063800CF00003082318B22833108008331382388
:10064800833182310222833183312F2383318131F7
:100658008A2183310800623051018D008F01910198
:1006680006309300920108004F0196019701980106
:1006780099019A019B010800640080010131890BEE
:10068800412B0034F300730882313722833108008C
:1006980072084001E9007108E8000800720840018A
:1006A800E7007108E600080072084001E3007108DD
:1006B800E200080072084001E5007108E400080043
:1006C80072084001E1007108E000080042011D12B3
:0E06D8001D1608008231F6228331080008004A
:020000040001F9
:0A000E00EC3FFF3F9F3FFF3FFF3F25
:00000001FF
